:100000000C943B000C94CC060C94CC060C94CC06BF
:100010000C94CC060C94CC060C94CC060C94CC0618
:100020000C94CC060C94CC060C94CC060C94CC0608
:100030000C94CC060C94CC060C94CC060C94CC06F8
:100040000C94CD030C94CC060C94CC060C94CC06EA
:100050000C94CC060C94CC060C94CC060C94CC06D8
:100060000C94CC060C94CC06010001010001430164
:10007000010102000D9C11241FBECFEFD8E0DEBFAE
:10008000CDBFE8E6F0E040E017C0B591A59135910D
:100090002591059107FD0CC095918591EF01F92FF0
:1000A000E82F05900D92A217B307D9F7FE0104C0FF
:1000B0001D92A217B307E1F7E637F40731F70E9464
:0A00C000AD010C946300F894FFCF2B
:1000CA002020204249454E56454E49444F002020A3
:1000DA00534D41525420434C45414E455200205203
:1000EA0045534944554F2028492F4E49290020207D
:1000FA00493A4F4E202020204E493A3D0043414E76
:10010A005449444144204241535552413A00202027
:10011A00202020004B4700454E5649414E444F206F
:10012A004441544F532E2E002A2A2A434F4D504CF5
:09013A00455441444F2A2A2A00D1
:0101430001BA
:10014400CF9380E00E94CF0487EA91E60197F1F70C
:1001540000C0000083B190E08E6F9F6F9C012095DA
:10016400309593B1892F90E08E6F9F6F8095909515
:10017400880F991F822B932B23B130E02B6F3F6F95
:10018400209530952C7F822B932B23B130E0276F61
:100194003F6F20953095287F822B932B82309105D9
:1001A40059F01CF4019771F005C08430910531F0C9
:1001B400089731F0C5E607C0C4E305C0C1E303C036
:1001C400CEE201C0C7E381E00E94CF0487EA91E652
:1001D4000197F1F700C0000083B190E08E6F9F6F2C
:1001E4009C012095309593B1892F90E08E6F9F6F7D
:1001F40080959095880F991F822B932B23B130E023
:100204002B6F3F6F209530952C7F822B932B23B13E
:1002140030E0276F3F6F20953095287F822B932BFA
:100224008230910551F01CF4019769F00DC08430BF
:10023400910529F0089729F007C0C5E305C0C2E37A
:1002440003C0C0E301C0C8E382E00E94CF0487EA90
:1002540091E60197F1F700C0000083B190E08E6F42
:100264009F6F9C012095309593B1892F90E08E6FFC
:100274009F6F80959095880F991F822B932B23B1A4
:1002840030E02B6F3F6F209530952C7F822B932B82
:1002940023B130E0276F3F6F20953095287F822B64
:1002A400932B8230910551F01CF4019769F00DC035
:1002B4008430910529F0089729F007C0C6E305C0EA
:1002C400C3E303C0CDE301C0C9E383E00E94CF04CC
:1002D40087EA91E60197F1F700C0000083B190E04E
:1002E4008E6F9F6F9C012095309593B1892F90E07C
:1002F4008E6F9F6F80959095880F991F822B932BFB
:1003040023B130E02B6F3F6F209530952C7F822BEB
:10031400932B23B130E0276F3F6F20953095287FD2
:10032400822B932B8230910551F01CF4019769F0D4
:100334000DC08430910529F0089729F007C0C8E55D
:1003440005C0CDE203C0CBE201C0CFE20E94560655
:060354008C2FCF910895EB
:10035A000E94F4050E9408060E9482068CE00E9410
:10036A0081030E9408050E94C1066AEC70E080E0E1
:10037A000E94AC0561E080E00E94780668ED70E0BA
:10038A0080E00E94AC052FEF83ED90E3215080407E
:10039A009040E1F700C000000E94BD0668EE70E0E0
:1003AA0080E00E94AC0561E080E00E94780668EF78
:1003BA0070E080E00E94AC050E94A20091E08D33BB
:1003CA0009F090E021E08E3209F420E09213F4CF94
:1003DA000E94BD060E94C10667E071E080E00E94AB
:1003EA00AC05C1E0D0E00E94A2008B9729F4C93085
:1003FA00D10514F4219608C00E94A2008D9721F419
:10040A00C230D1050CF0219761E080E00E947806A5
:10041A0068E171E080E00E94AC058C2F805D0E944B
:10042A00DF056EE171E080E00E94AC050E94A20047
:10043A008D33C9F60E94BD060E94C10661E271E0D1
:10044A0080E00E94AC052FEF83ED90E321508040BD
:10045A009040E1F700C000000E94BD060E94C1065C
:10046A0062E371E080E00E94AC052FEF83E294EF33
:0E047A00215080409040E1F700C000008FCF7D
:10048800CF93C82F662321F08BB180618BB903C04D
:100498008BB18F7E8BB98BB1877F8BB987B1826027
:1004A80087B987B1846087B987B1886087B987B110
:1004B800806187B988B18F7E88B988B1877F88B90C
:1004C80088B18B7F88B988B18D7F88B9CC231CF41B
:1004D80088B1806188B9C6FF03C088B1886088B9CF
:1004E800C5FF03C088B1846088B9C4FF03C088B160
:1004F800826088B90E948C0688B18F7E88B988B1DD
:10050800877F88B988B18B7F88B988B18D7F88B992
:10051800C3FF03C088B1806188B9C2FF03C088B136
:10052800886088B9C1FF03C088B1846088B9C0FFFA
:1005380003C088B1826088B90E948C0688B1826045
:1005480088B988B1846088B988B1886088B988B169
:08055800806188B9CF9108957C
:100560000FC00E94A20638F00E94A90620F0952331
:1005700011F00C94B7060C94C90611240C94B10622
:100580000E94680570F3959FC1F3950F50E0551FC9
:10059000629FF001729FBB27F00DB11D639FAA27D8
:1005A000F00DB11DAA1F649F6627B00DA11D661F27
:1005B000829F2227B00DA11D621F739FB00DA11D48
:1005C000621F839FA00D611D221F749F3327A00D02
:1005D000611D231F849F600D211D822F762F6A2F9E
:1005E00011249F5750409AF0F1F088234AF0EE0F03
:1005F000FF1FBB1F661F771F881F91505040A9F730
:100600009E3F510580F00C94B7060C94B1065F3FF5
:10061000E4F3983ED4F3869577956795B795F7956B
:10062000E7959F5FC1F7FE2B880F911D96958795E3
:0406300097F9089599
:1006340011C00E94A20638F00E94A90620F039F4E5
:100644009F3F19F426F40C94C9060EF4E095E7FBD9
:100654000C94B706E92F0E94680558F3BA1762078D
:1006640073078407950720F079F4A6F50C94B00677
:100674000EF4E0950B2EBA2FA02D0B01B9019001B9
:100684000C01CA01A0011124FF27591B99F0593FFD
:1006940050F4503E68F11A16F040A22F232F342F45
:1006A4004427585FF3CF469537952795A795F04093
:1006B4005395C9F77EF41F16BA0B620B730B840BA8
:1006C400BAF09150A1F0FF0FBB1F661F771F881F60
:1006D400C2F70EC0BA0F621F731F841F48F48795B8
:1006E40077956795B795F7959E3F08F0B0CF9395AA
:0E06F400880F08F09927EE0F979587950895C7
:100702001F93CF93DF93182F8AB180618AB98AB180
:1007120088608AB98AB180628AB987B1826087B9F2
:1007220087B1846087B987B1886087B987B18061F2
:1007320087B980E09AEF0197F1F788B1846088B9B0
:1007420088B1826088B90E948C0680E09EE401979D
:10075200F1F70E948C06C0E0D1E0CE010197F1F7DB
:100762000E948C06CE010197F1F788B18D7F88B97E
:100772000E948C062197F1F788E20E946E0688E0BB
:100782000E946E0686E00E946E06812F0E946E060F
:08079200DF91CF911F91089542
:10079A001F920F920FB60F9211242F933F934F93EC
:1007AA005F936F937F938F939F93AF93BF93EF93CF
:1007BA00FF9380910001882371F0809101010E94CA
:1007CA00C605809101018F5F809301018A3A89F4FD
:1007DA00109200010EC0809101010E94C60580910D
:1007EA000101815080930101863419F481E08093DC
:1007FA0000010E9413048CE086BDFF91EF91BF9126
:10080A00AF919F918F917F916F915F914F913F919E
:0C081A002F910F900FBE0F901F901895AB
:100826000F931F93CF93DF9300D01F92CDB7DEB700
:100836008BB180648BB98AE18A95F1F700C08BB1E0
:100846008F7B8BB989B11092B2004D99FECF609122
:10085600B20070E0660F771F660F771F660F771F6F
:10086600072E000C880B990B0E94590426E933E4E5
:100876004BE85CE30E94C5060E949B0621E030E03F
:100886008E010F5F1F4FA8010E9463060E94C106DA
:10089600B80180E80E94AC050F900F900F90DF9191
:0808A600CF911F910F910895FD
:1008AE00E89409C097FB3EF49095809570956195FC
:1008BE007F4F8F4F9F4F9923A9F0F92F96E9BB27B2
:1008CE009395F695879577956795B795F111F8CF2E
:1008DE00FAF4BB0F11F460FF1BC06F5F7F4F8F4F99
:1008EE009F4F16C0882311F096E911C0772321F08F
:1008FE009EE8872F762F05C0662371F096E8862F27
:10090E0070E060E02AF09A95660F771F881FDAF77D
:0A091E00880F9695879597F90895C4
:10092800882321F08BB180618BB903C08BB18F7E96
:100938008BB98BB188608BB987B18D7F87B987B147
:100948008B7F87B987B1877F87B987B18F7E87B952
:100958008BB180628BB900C0319902C080E001C0C0
:1009680080E13299806233998064349980689BB1C0
:100978009F7D9BB900C09BB190629BB900C0319923
:1009880081603299826033998460349988609BB120
:060998009F7D9BB908954C
:10099E0081110CC095B19F7E95B995B1906295B9B4
:1009AE0095B1906495B995B1906895B9813061F41F
:1009BE0095B1906195B995B19F7D95B995B19064BA
:1009CE0095B995B1906895B9823061F495B1906101
:1009DE0095B995B1906295B995B19F7B95B995B141
:1009EE00906895B9833061F485B1806185B985B120
:1009FE00806285B985B1806485B985B18F7785B9F7
:020A0E00089549
:100A100084B1806184B984B1806284B984B1806416
:100A200084B984B1806884B984B18E7F84B987B178
:100A30008E7F87B984B18B7F84B984B1877F84B975
:100A400085B1816085B988B1816088B985B18460DC
:100A500085B985B1886085B985B1806185B985B171
:100A6000806285B985B1806485B985B1806885B9B2
:020A70000895E7
:100A72000E94700588F09F5798F0B92F9927B751B7
:100A8200B0F0E1F0660F771F881F991F1AF0BA9530
:100A9200C9F714C0B13091F00E94B006B1E00895D8
:100AA2000C94B006672F782F8827B85F39F0B93FCA
:100AB200CCF3869577956795B395D9F73EF49095E3
:0E0AC2008095709561957F4F8F4F9F4F0895DF
:100AD00057FD9058440F551F59F05F3F71F04795EF
:100AE000880F97FB991F61F09F3F79F087950895D4
:100AF000121613061406551FF2CF4695F1DF08C0F3
:100B0000161617061806991FF1CF8695710561050F
:040B100008940895A8
:100B1400BB27FA01A62F6217710581059105330BD6
:100B240030FB66F0AA27660F771F881F991FAA1F3C
:100B3400A21710F0A21B63953850A9F7A05DAA3341
:100B440008F0A95DA19336F7B111B1931082CA01DF
:040B54000C942A06CD
:100B5800CF92DF92EF92A82FCB0104C00E94DF054D
:100B6800AE2DC6016C01EA2E2FEFC21AD20AE20A94
:100B7800FC018491A7FD80818111F0CFEF90DF9077
:040B8800CF9008956D
:100B8C00682F70E080E090E00E94590424E13EEA76
:100B9C004BE151E40E94C50620E030E042EC53E406
:100BAC000E9495060E943905709389006093880015
:020BBC0008959A
:100BBE00CF93C82F0E944906CA3049F4803410F4EE
:100BCE0080E401C080E080580E946E0604C061E09F
:0A0BDE008C2F0E944402CF9108956D
:100BE800E0E8F0E0808182688083E1E8F0E08081DD
:100BF800896180838FE19EE49093870080938600CB
:080C080084B1826084B90895F3
:100C10008AB180648AB98AB18F778AB98BB18F7BA8
:100C20008BB91092B000E1EBF0E0808183608083AB
:020C3000089525
:100C3200092E0394000C11F4882352F0BB0F40F4E8
:100C4200BF2B11F460FF04C06F5F7F4F8F4F9F4F28
:020C5200089503
:100C5400DC01FC01672F71917723E1F7329704C01F
:100C64007C916D9370836291AE17BF07C8F30895AA
:100C7400BB272A3051F4992342F4BDE29095809524
:0E0C8400709561957F4F8F4F9F4F0C948B059D
:100C920080E00E9494048823DCF388E090E00197CE
:0A0CA200F1F780E00E949404089529
:100CAC0085B1806185B985B1806285B985B1806473
:0A0CBC0085B985B1806885B90895F7
:100CC6002532310520F4223010F00C943A06FA0150
:060CD6001082CA0108951E
:100CDC00CF93C82F0E94490660E08C2F0E944402DB
:040CEC00CF91089507
:100CF000611104C080580E946E06089580540E94BD
:040D00006E060895DE
:100D0400F89485E085BD81E080936E0078948CE052
:040D140086BD0895FB
:100D18008BB180628BB900C08BB18F7D8BB9089580
:0E0D28005058BB27AA270E941A030C941906E4
:0E0D36000E9439056894B1110C94B10608951D
:0E0D440000240A9416161706180609060895CC
:0E0D520000240A9412161306140605060895CE
:0E0D6000E894BB2766277727CB0197F9089503
:0C0D6E0097F99F6780E870E060E008954E
:080D7A0081E00E946E0608955D
:080D820082E00E946E06089554
:080D8A000E94B0020C9419064E
:060D92009FEF80EC0895C4
:040D98000C940000B7
:010D9C004610
:00000001FF
