:100000000C943D000C94FF090C94FF090C94FF091B
:100010000C94FF090C94FF090C94FF090C94FF0940
:100020000C94FF090C94FF090C94FF090C94FF0930
:100030000C94FF090C94FF090C94FF090C94FF0920
:100040000C949C060C94FF090C94FF090C94FF0976
:100050000C94FF090C94FF090C94FF090C94FF0900
:100060000C94FF090C94FF090100010580010501B2
:100070000600016B01060107800011241FBECFEFAF
:10008000D8E0DEBFCDBFE8E6F0E040E017C0B591B4
:10009000A59135912591059107FD0CC0959185910C
:1000A000EF01F92FE82F05900D92A217B307D9F7AA
:1000B000FE0104C01D92A217B307E1F7E937F40768
:0E00C00031F70E94F1030C946500F894FFCF15
:1000CE00256C6C64002020204249454E56454E4911
:1000DE00444F002020534D41525420434C45414E35
:1000EE00455200205245534944554F2028492F4E22
:1000FE004929002020493A4F4E202020204E493ACF
:10010E003D0043414E5449444144204241535552CF
:10011E00413A002020202020004B4700454E5649F2
:10012E00414E444F204441544F532E2E002A2A2A2A
:10013E00434F4D504C455441444F2A2A2A00504FAC
:10014E0052204641564F52204553504552450020AD
:0D015E00202054524142414A414E444F007E
:01016B000192
:10016C002F923F924F926F927F928F929F92AF926B
:10017C00BF92CF92DF92EF92FF920F931F93CF9388
:10018C00DF93CDB7DEB762970FB6F894DEBF0FBE24
:10019C00CDBF6C013A01862E7901FC0110861782C5
:1001AC00848181FFE7C19E012F5F3F4F3D872C87E4
:1001BC00C901A0E8888B998BAA8B9FE3992EF30138
:1001CC00849187FC8081882309F4D0C1482D930148
:1001DC002F5F3F4F4F4F853219F03901842E0AC0E3
:1001EC00F901849147FD808192E0690E711C811C9C
:1001FC00853229F4B60190E00E945D07E0CFB12C66
:10020C0000E010E01032A0F48B3269F030F4803250
:10021C0059F0833269F410612CC08D3239F080337F
:10022C0039F4116026C01260146023C0186021C01C
:10023C0017FD29C090ED980F9A3078F416FF06C080
:10024C00AAE0BA9E900D1124B92E13C0EAE00E9FBD
:10025C00900D1124092F10620CC08E3221F416FD62
:10026C0085C1106406C08C3611F4106802C0883643
:10027C0051F4F301849187FC8081FFEF6F1A7F0AA0
:10028C008F0A8111BFCF982F9F7D9554933028F4FE
:10029C0024E0E20EF11C99820FC0833631F08337D3
:1002AC0091F0833509F063C027C0F7018081898301
:1002BC0097012E5F3F4F7901288839884A88AA24F4
:1002CC00A394B12C17C0A7014D5F5F4F5F874E877A
:1002DC00F70120803180428016FF03C04B2D50E087
:1002EC0002C04FEF5FEF842DB1010E94C1085C0189
:1002FC00EE84FF841F7718C097012D5F3F4F3F8717
:10030C002E87F70120803180428016FF03C04B2DD1
:10031C0050E002C04FEF5FEF842DB1010E94C10885
:10032C005C011068EE84FF8413FD1DC0802F90E0EB
:10033C00A816B906C0F4B60180E290E00E945D07F1
:10034C000150F4CFF101849147FC8081FFEF2F1A0B
:10035C003F0A4F0AB60190E00E945D07011101505F
:10036C0021E0A21AB108A114B10461F7F5C08436DA
:10037C0011F0893671F5F70117FF08C060817181A2
:10038C008281938197012C5F3F4F09C060817181FD
:10039C00072E000C880B990B97012E5F3F4F7901AC
:1003AC001F76312E97FF0AC09095809570956195B8
:1003BC007F4F8F4F9F4F312F3068332E2AE030E024
:1003CC00AE014F5F5F4F0E94AA05482E4C85441A20
:1003DC004AC0853729F41F7EA12E2AE030E025C0C3
:1003EC00512F597FA52E8F36C1F018F4883579F02E
:1003FC00BDC0803719F0883721F0B8C0852F8061D7
:10040C00A82EA4FE0DC09A2D9460A92E09C014FF2D
:10041C000AC0A52FA660AA2E06C028E030E005C0B1
:10042C0020E130E002C020E132E0F701A7FE08C075
:10043C006081718182819381A7014C5F5F4F07C0FE
:10044C006081718180E090E0A7014E5F5F4F7A017F
:10045C00AE014F5F5F4F0E94AA05482E5C85451A7E
:10046C008A2D8F77382E36FE0DC0932D9E7FA92EA8
:10047C004B1458F434FE0BC032FC09C0A32DAE7ED5
:10048C00AA2E05C0142DA32C03C0142D01C01B2DA6
:10049C00A4FE0EC0FE01E40DF11D8081803321F419
:1004AC00EA2DE97EAE2E08C0A2FE05C01E5F04C078
:1004BC008A2D867809F01F5FA3FC11C0A0FE06C030
:1004CC00101788F4040DB02EB11A0EC0101760F47A
:1004DC00B60180E290E00E945D071F5FF7CF101716
:1004EC0018F4011B02C0B42C00E0A4FE10C0B6012D
:1004FC0080E390E00E945D07A2FE17C0A1FC03C040
:10050C0088E790E002C088E590E0B6010CC08A2D27
:10051C00867859F0A1FE02C08BE201C080E2A7FCF4
:10052C008DE2B60190E00E945D074B1438F4B601E1
:10053C0080E390E00E945D07BA94F7CF4A94E1E023
:10054C00F0E0EC0FFD1FE40DF11D8081B60190E091
:10055C000E945D074110F2CF002309F430CEB601A2
:10056C0080E290E00E945D070150F6CFF601878192
:10057C00908502C08FEF9FEF62960FB6F894DEBFA6
:10058C000FBECDBFDF91CF911F910F91FF90EF90D8
:10059C00DF90CF90BF90AF909F908F907F906F9097
:0805AC004F903F902F9008953D
:1005B400CF9380E00E94D4072FE788E391E0215095
:1005C40080409040E1F700C0000083B190E08E6F5E
:1005D4009F6F9C012095309593B1892F90E08E6F89
:1005E4009F6F80959095880F991F822B932B23B131
:1005F40030E02B6F3F6F209530952C7F822B932B0F
:1006040023B130E0276F3F6F20953095287F822BF0
:10061400932B8230910559F01CF4019771F005C0B9
:100624008430910531F0089731F0C5E607C0C4E382
:1006340005C0C1E303C0CEE201C0C7E381E00E946C
:10064400D4072FE788E391E0215080409040E1F700
:1006540000C0000083B190E08E6F9F6F9C012095D5
:10066400309593B1892F90E08E6F9F6F8095909510
:10067400880F991F822B932B23B130E02B6F3F6F90
:10068400209530952C7F822B932B23B130E0276F5C
:100694003F6F20953095287F822B932B82309105D4
:1006A40051F01CF4019769F00DC08430910529F0D4
:1006B400089729F007C0C5E305C0C2E303C0C0E33F
:1006C40001C0C8E382E00E94D4072FE788E391E0E9
:1006D400215080409040E1F700C0000083B190E0D9
:1006E4008E6F9F6F9C012095309593B1892F90E078
:1006F4008E6F9F6F80959095880F991F822B932BF7
:1007040023B130E02B6F3F6F209530952C7F822BE7
:10071400932B23B130E0276F3F6F20953095287FCE
:10072400822B932B8230910551F01CF4019769F0D0
:100734000DC08430910529F0089729F007C0C6E35D
:1007440005C0C3E303C0CDE301C0C9E383E00E9455
:10075400D4072FE788E391E0215080409040E1F7EF
:1007640000C0000083B190E08E6F9F6F9C012095C4
:10077400309593B1892F90E08E6F9F6F80959095FF
:10078400880F991F822B932B23B130E02B6F3F6F7F
:10079400209530952C7F822B932B23B130E0276F4B
:1007A4003F6F20953095287F822B932B82309105C3
:1007B40051F01CF4019769F00DC08430910529F0C3
:1007C400089729F007C0C8E505C0CDE203C0CBE215
:0E07D40001C0CFE20E9490098C2FCF910895B2
:1007E2000E943C090E9461080E9451090E9454061D
:1007F200609102017091030180E80E9411090E9438
:10080200BC098CE00E9408060E940D080E94F409AF
:100812000E94F0090E94F40963ED70E080E00E94FA
:10082200F70861E080E00E94B20961EE70E080E0CA
:100832000E94F7082FEF37EA81E6215030408040CE
:10084200E1F700C000000E94F00980E00E949D09CB
:100852008091040181118AC061EF70E080E00E9402
:10086200F70861E080E00E94B20961E071E080E097
:100872000E94F7080E94DA028D3311F0C82F01C0DE
:10088200CEE48E3209F4C9E491E0823309F090E0BB
:1008920021E08E3209F420E09213ECCF0E94F0099D
:1008A2000E94F40960E171E080E00E94F70801E033
:1008B20010E00E94DA028B9731F4093011051CF422
:1008C2000F5F1F4F09C00E94DA028D9729F4023090
:1008D200110514F00150110961E080E00E94B20993
:1008E20061E271E080E00E94F708D0E3D00F8D2F23
:1008F2000E94270967E271E080E00E94F7080E94E7
:10090200DA028233B1F60E94F0090E94F4096AE227
:1009120071E080E00E94F70881E30E94CE098D2FEA
:100922000E94CE098C2F0E94CE099FEF23ED30E367
:10093200915020403040E1F700C000008091C0009B
:100942000E94F0090E94F4096BE371E080E00E94CA
:10095200F7088FEF99E628E1815090402040E1F7B7
:1009620000C0000081E08093040172CF0E94F00970
:100972000E94F4096CE471E080E00E94F70861E0F3
:1009820080E00E94B2096DE571E080E00E94F70804
:100992003AEA8BEC9FED20E03150804090402040BD
:0609A200D9F7000055CF5B
:1009A800CF93C82F662321F08BB180618BB903C028
:1009B8008BB18F7E8BB98BB1877F8BB987B1826002
:1009C80087B987B1846087B987B1886087B987B1EB
:1009D800806187B988B18F7E88B988B1877F88B9E7
:1009E80088B18B7F88B988B18D7F88B9CC231CF4F6
:1009F80088B1806188B9C6FF03C088B1886088B9AA
:100A0800C5FF03C088B1846088B9C4FF03C088B13A
:100A1800826088B90E94C60988B18F7E88B988B17A
:100A2800877F88B988B18B7F88B988B18D7F88B96D
:100A3800C3FF03C088B1806188B9C2FF03C088B111
:100A4800886088B9C1FF03C088B1846088B9C0FFD5
:100A580003C088B1826088B90E94C60988B18260E3
:100A680088B988B1846088B988B1886088B988B144
:080A7800806188B9CF91089557
:100A80000FC00E94D50938F00E94DC0920F09523A0
:100A900011F00C94EA090C94FC0911240C94E4095B
:100AA0000E94830870F3959FC1F3950F50E0551F86
:100AB000629FF001729FBB27F00DB11D639FAA27B3
:100AC000F00DB11DAA1F649F6627B00DA11D661F02
:100AD000829F2227B00DA11D621F739FB00DA11D23
:100AE000621F839FA00D611D221F749F3327A00DDD
:100AF000611D231F849F600D211D822F762F6A2F79
:100B000011249F5750409AF0F1F088234AF0EE0FDD
:100B1000FF1FBB1F661F771F881F91505040A9F70A
:100B20009E3F510580F00C94EA090C94E4095F3F64
:100B3000E4F3983ED4F3869577956795B795F79546
:100B4000E7959F5FC1F7FE2B880F911D96958795BE
:040B500097F9089574
:100B5400FA01AA27283051F1203181F1E8946F93EA
:100B64006E7F6E5F7F4F8F4F9F4FAF4FB1E03ED090
:100B7400B4E03CD0670F781F891F9A1FA11D680F2E
:100B8400791F8A1F911DA11D6A0F711D811D911D61
:100B9400A11D20D009F468943F912AE0269F1124D6
:100BA4003019305D3193DEF6CF010895462F47703A
:100BB400405D4193B3E00FD0C9F7F6CF462F4F7095
:100BC400405D4A3318F0495D31FD4052419302D0F3
:100BD400A9F7EACFB4E0A695979587957795679599
:100BE400BA95C9F700976105710508959B01AC0199
:100BF4000A2E06945795479537952795BA95C9F7C0
:0C0C0400620F731F841F951FA01D089530
:100C10001F93CF93DF93182F8AB180618AB98AB16D
:100C200088608AB98AB180628AB987B1826087B9DF
:100C300087B1846087B987B1886087B987B18061DF
:100C400087B980E09AEF0197F1F788B1846088B99D
:100C500088B1826088B90E94C60980E09EE401974D
:100C6000F1F70E94C609C0E0D1E0CE010197F1F78B
:100C70000E94C609CE010197F1F788B18D7F88B92E
:100C80000E94C6092197F1F788E20E94A80988E02E
:100C90000E94A80986E00E94A809812F0E94A80945
:080CA000DF91CF911F9108952F
:100CA8008BB180648BB98AE18A95F1F700C08BB16A
:100CB8008F7B8BB989B11092B20089B182958695E4
:100CC8008770D9F76091B20070E0660F771F660FE2
:100CD800771F660F771F072E000C880B990B0E9451
:100CE800E60626E933E44BE85CE30E94F8090E9433
:100CF80021079F938F937F936F935F934F933F93B6
:100D08002F938EEC90E0A0E0AF939F938F93809108
:100D180003018F93809102018F930E943E088DB743
:100D28009EB70D960FB6F8949EBF0FBE8DBF08955F
:100D38001F920F920FB60F9211242F933F934F9348
:100D48005F936F937F938F939F93AF93BF93EF932B
:100D5800FF9380910401882311F180910501882374
:100D680071F0809106010E949D09809106018F5FB4
:100D780080930601843B89F4109205010EC080918E
:100D880006010E949D098091060181508093060109
:100D9800811103C081E0809305018CE086BDFF913D
:100DA800EF91BF91AF919F918F917F916F915F91DB
:100DB8004F913F912F910F900FBE0F901F90189554
:100DC800E89409C097FB3EF49095809570956195DD
:100DD8007F4F8F4F9F4F9923A9F0F92F96E9BB2793
:100DE8009395F695879577956795B795F111F8CF0F
:100DF800FAF4BB0F11F460FF1BC06F5F7F4F8F4F7A
:100E08009F4F16C0882311F096E911C0772321F06F
:100E18009EE8872F762F05C0662371F096E8862F07
:100E280070E060E02AF09A95660F771F881FDAF75E
:0A0E3800880F9695879597F90895A5
:100E4200BEE304D008F490E80895BFE322273327D5
:100E5200A9010E948B0860F19F5748F1B91740F130
:100E6200BFE3B91B9927B8503AF4660F771F881F62
:100E7200991FB395D2F316C0B8504AF0232F342FDE
:100E8200452F562F672F782F8827B850BAF7B85FAB
:100E920049F08695779567955795479537952795A4
:100EA200BA95B9F716F40E94730988940895889444
:080EB20060E070E0CB0108953F
:100EBA000F931F93CF93DF93FB01248121FD03C07E
:100ECA008FEF9FEF2CC022FF16C0478150852581E6
:100EDA0036814217530744F4A081B1819D012F5FE7
:100EEA003F4F318320838C93278130852F5F3F4F7B
:100EFA003087278314C08B01EC01FB010184F28542
:100F0A00E02D0995892BE1F6D80117968D919C91D0
:100F1A001897019618969C938E931797CE01DF9196
:080F2A00CF911F910F91089572
:100F3200882321F08BB180618BB903C08BB18F7E86
:100F42008BB98BB188608BB987B18D7F87B987B137
:100F52008B7F87B987B1877F87B987B18F7E87B942
:100F62008BB180628BB900C0319902C080E001C0B0
:100F720080E13299806233998064349980689BB1B0
:100F82009F7D9BB900C09BB190629BB900C0319913
:100F920081603299826033998460349988609BB110
:060FA2009F7D9BB908953C
:100FA80081110CC095B19F7E95B995B1906295B9A4
:100FB80095B1906495B995B1906895B9813061F40F
:100FC80095B1906195B995B19F7D95B995B19064AA
:100FD80095B995B1906895B9823061F495B19061F1
:100FE80095B995B1906295B995B19F7B95B995B131
:100FF800906895B9833061F485B1806185B985B110
:10100800806285B985B1806485B985B18F7785B9E6
:02101800089539
:10101A0084B1806184B984B1806284B984B1806406
:10102A0084B984B1806884B984B18E7F84B987B168
:10103A008E7F87B984B18B7F84B984B1877F84B965
:10104A0085B1816085B988B1816088B985B18460CC
:10105A0085B985B1886085B985B1806185B985B161
:10106A00806285B985B1806485B985B1806885B9A2
:02107A000895D7
:10107C00AFE0B0E0E4E4F8E00C94B3080E891F890B
:10108C0086E08D831A8309838FEF9FE79F838E837E
:10109C009E01255E3F4F488D598D6A8DCE0101967C
:1010AC000E94B600E885F985E00FF11F10822F969B
:0610BC00E4E00C94EA08D8
:1010C20084B1826084B910928500109284008FE10D
:1010D2009EE49093870080938600E0E8F0E080E849
:1010E2008083808182608083E1E8F0E088E1808310
:1010F20080818260808384E195E09093890080936F
:0411020088000895C4
:1011060057FD9058440F551F59F05F3F71F04795B2
:10111600880F97FB991F61F09F3F79F08795089597
:10112600121613061406551FF2CF4695F1DF08C0B6
:10113600161617061806991FF1CF869571056105D3
:04114600089408956C
:10114A002F923F924F925F926F927F928F929F92CD
:10115A00AF92BF92CF92DF92EF92FF920F931F93BB
:10116A00CF93DF93CDB7DEB7CA1BDB0B0FB6F8946C
:08117A00DEBF0FBECDBF0994DA
:10118200CF92DF92EF926B01E82EA82FCB0141158F
:10119200510531F48C199D09EF90DF90CF9008959D
:1011A200FC012491A7FD20812223A1F30196A11D18
:0611B20041505109ECCF91
:1011B8002A88398848885F846E847D848C849B84DF
:1011C800AA84B984C884DF80EE80FD800C811B81ED
:1011D800AA81B981CE0FD11D0FB6F894DEBF0FBE1C
:0611E800CDBFED010895EA
:1011EE00CF92DF92EF92A82FCB0104C00E94270965
:1011FE00AE2DC6016C01EA2E2FEFC21AD20AE20AF8
:10120E00FC018491A7FD80818111F0CFEF90DF90DA
:04121E00CF900895D0
:10122200CF92DF92EF926B01E82E06C00E94CE09A8
:101232008FEFC81AD80AE80AF6018491E7FC808188
:0C1242008111F4CFEF90DF90CF90089561
:10124E00CF93C82F0E948309CA3049F4803410F41A
:10125E0080E401C080E080580E94A80904C061E0CB
:0A126E008C2F0E94D404CF91089544
:101278008AB182608AB98AB18E7F8AB91092C00019
:1012880088E98093C10086E08093C20083E390E000
:0A1298009093C5008093C4000895F0
:1012A2008AB180648AB98AB18F778AB98BB18F7B10
:1012B2008BB91092B000E1EBF0E080818360808313
:0212C20008958D
:1012C400092E0394000C11F4882352F0BB0F40F450
:1012D400BF2B11F460FF04C06F5F7F4F8F4F9F4F90
:0212E40008956B
:1012E600909580957095609550954095309521958F
:1012F6003F4F4F4F5F4F6F4F7F4F8F4F9F4F089519
:1013060080E00E9499078823DCF388E090E001974B
:0A131600F1F780E00E9499070895A6
:1013200085B1806185B985B1806285B985B18064F8
:0A13300085B985B1806885B908957C
:10133A0026E1829FC00111248C5E9A4F9093890006
:06134A0080938800089565
:10135000CF93C82F0E94830960E08C2F0E94D40491
:04136000CF9108958C
:10136400611104C080580E94A809089580540E9405
:04137400A809089527
:10137800F89485E085BD81E080936E0078948CE0D8
:0413880086BD089581
:10138C008BB180628BB900C08BB18F7D8BB9089506
:0E139C009091C00095FFFCCF8093C60008958D
:0E13AA0000240A941616170618060906089560
:0E13B80000240A941216130614060506089562
:0E13C600E894BB2766277727CB0197F9089597
:0C13D40097F99F6780E870E060E00895E2
:0813E00081E00E94A8090895B4
:0813E80082E00E94A8090895AB
:0813F0000E9440050C94620903
:0613F8009FEF80EC089558
:0413FE000C9400004B
:00000001FF
