:100000000C943D000C941D050C941D050C941D05CD
:100010000C941D050C941D050C941D050C941D05D8
:100020000C941D050C941D050C941D050C941D05C8
:100030000C941D050C941D050C941D050C941D05B8
:100040000C945F030C941D050C941D050C941D0568
:100050000C941D050C941D050C941D050C941D0598
:100060000C941D050C941D05010001018001010186
:100070000200016B01020103800011241FBECFEFBB
:10008000D8E0DEBFCDBFE8E6F0E040E017C0B591B4
:10009000A59135912591059107FD0CC0959185910C
:1000A000EF01F92FE82F05900D92A217B307D9F7AA
:1000B000FE0104C01D92A217B307E1F7E937F40768
:0E00C00031F70E94CD010C946500F894FFCF3B
:1000CE00256C6C64002020204249454E56454E4911
:1000DE00444F002020534D41525420434C45414E35
:1000EE00455200205245534944554F2028492F4E22
:1000FE004929002020493A4F4E202020204E493ACF
:10010E003D0043414E5449444144204241535552CF
:10011E00413A002020202020004B4700454E5649F2
:10012E00414E444F204441544F532E2E002A2A2A2A
:10013E00434F4D504C455441444F2A2A2A00504FAC
:10014E0052204641564F52204553504552450020AD
:0D015E00202054524142414A414E444F007E
:01016B000192
:10016C00CF9380E00E94E2032FE788E391E02150D7
:10017C0080409040E1F700C0000083B190E08E6FAA
:10018C009F6F9C012095309593B1892F90E08E6FD5
:10019C009F6F80959095880F991F822B932B23B17D
:1001AC0030E02B6F3F6F209530952C7F822B932B5B
:1001BC0023B130E0276F3F6F20953095287F822B3D
:1001CC00932B8230910559F01CF4019771F005C006
:1001DC008430910531F0089731F0C5E607C0C4E3CF
:1001EC0005C0C1E303C0CEE201C0C7E381E00E94B9
:1001FC00E2032FE788E391E0215080409040E1F743
:10020C0000C0000083B190E08E6F9F6F9C01209521
:10021C00309593B1892F90E08E6F9F6F809590955C
:10022C00880F991F822B932B23B130E02B6F3F6FDC
:10023C00209530952C7F822B932B23B130E0276FA8
:10024C003F6F20953095287F822B932B8230910520
:10025C0051F01CF4019769F00DC08430910529F020
:10026C00089729F007C0C5E305C0C2E303C0C0E38B
:10027C0001C0C8E382E00E94E2032FE788E391E02B
:10028C00215080409040E1F700C0000083B190E025
:10029C008E6F9F6F9C012095309593B1892F90E0C4
:1002AC008E6F9F6F80959095880F991F822B932B43
:1002BC0023B130E02B6F3F6F209530952C7F822B34
:1002CC00932B23B130E0276F3F6F20953095287F1B
:1002DC00822B932B8230910551F01CF4019769F01D
:1002EC000DC08430910529F0089729F007C0C6E3AA
:1002FC0005C0C3E303C0CDE301C0C9E383E00E94A2
:10030C00E2032FE788E391E0215080409040E1F731
:10031C0000C0000083B190E08E6F9F6F9C01209510
:10032C00309593B1892F90E08E6F9F6F809590954B
:10033C00880F991F822B932B23B130E02B6F3F6FCB
:10034C00209530952C7F822B932B23B130E0276F97
:10035C003F6F20953095287F822B932B823091050F
:10036C0051F01CF4019769F00DC08430910529F00F
:10037C00089729F007C0C8E505C0CDE203C0CBE261
:0E038C0001C0CFE20E94D0048C2FCF910895C3
:10039A000E949D040E944C040E94B2040E94FC0424
:1003AA008CE00E9413030E941B040E9419050E94FC
:1003BA0015050E94190563ED70E080E00E946E0445
:1003CA0061E080E00E94F20461EE70E080E00E9449
:1003DA006E042FEF37EA81E6215030408040E1F782
:1003EA0000C000000E94150580E00E94DD04809193
:1003FA00000181118AC061EF70E080E00E946E0402
:10040A0061E080E00E94F20461E071E080E00E9415
:10041A006E040E94B6008D3311F0C82F01C0CEE4DD
:10042A008E3209F4C9E491E0823309F090E021E0C8
:10043A008E3209F420E09213ECCF0E9415050E9437
:10044A00190560E171E080E00E946E0401E010E0AD
:10045A000E94B6008B9731F4093011051CF40F5F26
:10046A001F4F09C00E94B6008D9729F4023011056A
:10047A0014F00150110961E080E00E94F20461E287
:10048A0071E080E00E946E04D0E3D00F8D2F0E94AD
:10049A00880467E271E080E00E946E040E94B60060
:1004AA008233B1F60E9415050E9419056AE271E0CD
:1004BA0080E00E946E0481E30E940E058D2F0E9447
:1004CA000E058C2F0E940E059FEF23ED30E391500D
:1004DA0020403040E1F700C000008091C0000E9437
:1004EA0015050E9419056BE371E080E00E946E0415
:1004FA008FEF99E628E1815090402040E1F700C053
:10050A00000081E08093000172CF0E9415050E94CD
:10051A0019056CE471E080E00E946E0461E080E0FD
:10052A000E94F2046DE571E080E00E946E043AEAEE
:10053A008BEC9FED20E03150804090402040D9F76D
:04054A00000055CF89
:10054E00CF93C82F662321F08BB180618BB903C086
:10055E008BB18F7E8BB98BB1877F8BB987B1826060
:10056E0087B987B1846087B987B1886087B987B149
:10057E00806187B988B18F7E88B988B1877F88B945
:10058E0088B18B7F88B988B18D7F88B9CC231CF454
:10059E0088B1806188B9C6FF03C088B1886088B908
:1005AE00C5FF03C088B1846088B9C4FF03C088B199
:1005BE00826088B90E94060588B18F7E88B988B19D
:1005CE00877F88B988B18B7F88B988B18D7F88B9CC
:1005DE00C3FF03C088B1806188B9C2FF03C088B170
:1005EE00886088B9C1FF03C088B1846088B9C0FF34
:1005FE0003C088B1826088B90E94060588B1826006
:10060E0088B988B1846088B988B1886088B988B1A2
:08061E00806188B9CF910895B5
:100626001F93CF93DF93182F8AB180618AB98AB15D
:1006360088608AB98AB180628AB987B1826087B9CF
:1006460087B1846087B987B1886087B987B18061CF
:1006560087B980E09AEF0197F1F788B1846088B98D
:1006660088B1826088B90E94060580E09EE4019701
:10067600F1F70E940605C0E0D1E0CE010197F1F73F
:100686000E940605CE010197F1F788B18D7F88B9E2
:100696000E9406052197F1F788E20E94E80488E0A7
:1006A6000E94E80486E00E94E804812F0E94E80484
:0806B600DF91CF911F9108951F
:1006BE001F920F920FB60F9211242F933F934F93C9
:1006CE005F936F937F938F939F93AF93BF93EF93AC
:1006DE00FF9380910001882311F1809101018823FD
:1006EE0071F0809102010E94DD04809102018F5F02
:1006FE0080930201843B89F4109201010EC0809117
:10070E0002010E94DD04809102018150809302015A
:10071E00811103C081E0809301018CE086BDFF91C1
:10072E00EF91BF91AF919F918F917F916F915F915B
:10073E004F913F912F910F900FBE0F901F901895D4
:10074E00882321F08BB180618BB903C08BB18F7E72
:10075E008BB98BB188608BB987B18D7F87B987B123
:10076E008B7F87B987B1877F87B987B18F7E87B92E
:10077E008BB180628BB900C0319902C080E001C09C
:10078E0080E13299806233998064349980689BB19C
:10079E009F7D9BB900C09BB190629BB900C03199FF
:1007AE0081603299826033998460349988609BB1FC
:0607BE009F7D9BB9089528
:1007C40081110CC095B19F7E95B995B1906295B990
:1007D40095B1906495B995B1906895B9813061F4FB
:1007E40095B1906195B995B19F7D95B995B1906496
:1007F40095B995B1906895B9823061F495B19061DD
:1008040095B995B1906295B995B19F7B95B995B11C
:10081400906895B9833061F485B1806185B985B1FB
:10082400806285B985B1806485B985B18F7785B9D2
:02083400089525
:1008360084B1806184B984B1806284B984B18064F2
:1008460084B984B1806884B984B18E7F84B987B154
:100856008E7F87B984B18B7F84B984B1877F84B951
:1008660085B1816085B988B1816088B985B18460B8
:1008760085B985B1886085B985B1806185B985B14D
:10088600806285B985B1806485B985B1806885B98E
:020896000895C3
:1008980084B1826084B910928500109284008FE13F
:1008A8009EE49093870080938600E0E8F0E080E87B
:1008B8008083808182608083E1E8F0E088E1808342
:1008C80080818260808384E195E0909389008093A1
:0408D80088000895F7
:1008DC00CF92DF92EF92A82FCB0104C00E94880424
:1008EC00AE2DC6016C01EA2E2FEFC21AD20AE20A13
:1008FC00FC018491A7FD80818111F0CFEF90DF90F6
:04090C00CF900895EB
:10091000CF93C82F0E94C304CA3049F4803410F426
:1009200080E401C080E080580E94E80404C061E0D7
:0A0930008C2F0E94A702CF910895BA
:10093A008AB182608AB98AB18E7F8AB91092C00060
:10094A0088E98093C10086E08093C20083E390E047
:0A095A009093C5008093C400089537
:100964008AB180648AB98AB18F778AB98BB18F7B57
:100974008BB91092B000E1EBF0E08081836080835A
:020984000895D4
:1009860080E00E94A7038823DCF388E090E00197CB
:0A099600F1F780E00E94A703089526
:1009A00085B1806185B985B1806285B985B1806482
:0A09B00085B985B1806885B9089506
:1009BA0026E1829FC00111248C5E9A4F9093890090
:0609CA00809388000895EF
:1009D000CF93C82F0E94C30460E08C2F0E94A7020F
:0409E000CF91089516
:1009E400611104C080580E94E804089580540E9454
:0409F400E804089576
:1009F800F89485E085BD81E080936E0078948CE062
:040A080086BD08950A
:100A0C008BB180628BB900C08BB18F7D8BB908958F
:0E0A1C009091C00095FFFCCF8093C600089516
:080A2A0081E00E94E804089538
:080A320082E00E94E80408952F
:040A3A000C94000018
:00000001FF
